:020000040000fa
:080000000002040000000000f2
:020000040000fa
:0400080006030000eb
:020000040000fa
:04000c0018030000d5
:020000040000fa
:0400100030030000b9
:020000040000fa
:040014000e030000d7
:020000040000fa
:0400180020030000c1
:020000040000fa
:04001c0028030000b5
:020000040000fa
:0400200038030000a1
:020000040000fa
:04002400de030000f7
:020000040000fa
:04002800de030000f3
:020000040000fa
:04002c00de030000ef
:020000040000fa
:04003000de030000eb
:020000040000fa
:04003400de030000e7
:020000040000fa
:04003800de030000e3
:020000040000fa
:04003c00de030000df
:020000040000fa
:04004000de030000db
:020000040000fa
:04004400a80300000d
:020000040000fa
:04004800de030000d3
:020000040000fa
:04004c00de030000cf
:020000040000fa
:04005000de030000cb
:020000040000fa
:04005400de030000c7
:020000040000fa
:04005800de030000c3
:020000040000fa
:04005c00de030000bf
:020000040000fa
:04006000de030000bb
:020000040000fa
:04006400de030000b7
:020000040000fa
:04006800de030000b3
:020000040000fa
:04006c00de030000af
:020000040000fa
:04007000de030000ab
:020000040000fa
:040074007a0300000b
:020000040000fa
:04007800de030000a3
:020000040000fa
:04007c00de0300009f
:020000040000fa
:04008000de0300009b
:020000040000fa
:04008400de03000097
:020000040000fa
:04008800de03000093
:020000040000fa
:04008c00de0300008f
:020000040000fa
:04009000de0300008b
:020000040000fa
:04009400de03000087
:020000040000fa
:04009800de03000083
:020000040000fa
:04009c00de0300007f
:020000040000fa
:0400a000de0300007b
:020000040000fa
:0400a400de03000077
:020000040000fa
:0400a800de03000073
:020000040000fa
:0400ac00de0300006f
:020000040000fa
:0400b000de0300006b
:020000040000fa
:0400b400de03000067
:020000040000fa
:0400b800de03000063
:020000040000fa
:0400bc00de0300005f
:020000040000fa
:0400c000de0300005b
:020000040000fa
:0400c400de03000057
:020000040000fa
:0400c800de03000053
:020000040000fa
:0400cc00de0300004f
:020000040000fa
:0400d000de0300004b
:020000040000fa
:0400d400de03000047
:020000040000fa
:0400d800de03000043
:020000040000fa
:0400dc00de0300003f
:020000040000fa
:0400e000de0300003b
:020000040000fa
:0400e400de03000037
:020000040000fa
:0400e800de03000033
:020000040000fa
:0400ec00de0300002f
:020000040000fa
:0400f000de0300002b
:020000040000fa
:0400f400de03000027
:020000040000fa
:0400f800de03000023
:020000040000fa
:0400fc00de0300001f
:020000040000fa
:04010000de0300001a
:020000040000fa
:04010400de03000016
:020000040000fa
:04010800de03000012
:020000040000fa
:04010c00de0300000e
:020000040000fa
:04011000de0300000a
:020000040000fa
:04011400de03000006
:020000040000fa
:04011800de03000002
:020000040000fa
:04011c00de030000fe
:020000040000fa
:04012000de030000fa
:020000040000fa
:04012400de030000f6
:020000040000fa
:04012800de030000f2
:020000040000fa
:04012c00de030000ee
:020000040000fa
:04013000de030000ea
:020000040000fa
:04013400de030000e6
:020000040000fa
:04013800de030000e2
:020000040000fa
:04013c00de030000de
:020000040000fa
:04014000de030000da
:020000040000fa
:04014400de030000d6
:020000040000fa
:04014800de030000d2
:020000040000fa
:04014c00de030000ce
:020000040000fa
:04015000de030000ca
:020000040000fa
:04015400de030000c6
:020000040000fa
:04015800de030000c2
:020000040000fa
:04015c00de030000be
:020000040000fa
:04016000de030000ba
:020000040000fa
:04016400de030000b6
:020000040000fa
:04016800de030000b2
:020000040000fa
:04016c00de030000ae
:020000040000fa
:04017000de030000aa
:020000040000fa
:04017400de030000a6
:020000040000fa
:04017800de030000a2
:020000040000fa
:04017c00de0300009e
:020000040000fa
:04018000de0300009a
:020000040000fa
:04018400de03000096
:020000040000fa
:04018800de03000092
:020000040000fa
:04018c00de0300008e
:020000040000fa
:04019000de0300008a
:020000040000fa
:04019400de03000086
:020000040000fa
:04019800de03000082
:020000040000fa
:04019c00de0300007e
:020000040000fa
:0401a000de0300007a
:020000040000fa
:0401a400de03000076
:020000040000fa
:0401a800de03000072
:020000040000fa
:0401ac00de0300006e
:020000040000fa
:0401b000de0300006a
:020000040000fa
:0401b400de03000066
:020000040000fa
:0401b800de03000062
:020000040000fa
:0401bc00de0300005e
:020000040000fa
:0401c000de0300005a
:020000040000fa
:0401c400de03000056
:020000040000fa
:0401c800de03000052
:020000040000fa
:0401cc00de0300004e
:020000040000fa
:0401d000de0300004a
:020000040000fa
:0401d400de03000046
:020000040000fa
:0401d800de03000042
:020000040000fa
:0401dc00de0300003e
:020000040000fa
:0401e000de0300003a
:020000040000fa
:0401e400de03000036
:020000040000fa
:0401e800de03000032
:020000040000fa
:0401ec00de0300002e
:020000040000fa
:0401f000de0300002a
:020000040000fa
:0401f400de03000026
:020000040000fa
:0401f800de03000022
:020000040000fa
:0401fc00de0300001e
:020000040000fa
:04020000de03000019
:020000040000fa
:04020400de03000015
:020000040000fa
:04020800de03000011
:020000040000fa
:04020c00de0300000d
:020000040000fa
:04021000de03000009
:020000040000fa
:04021400de03000005
:020000040000fa
:04021800de03000001
:020000040000fa
:04021c00de030000fd
:020000040000fa
:04022000de030000f9
:020000040000fa
:04022400de030000f5
:020000040000fa
:04022800de030000f1
:020000040000fa
:04022c00de030000ed
:020000040000fa
:04023000de030000e9
:020000040000fa
:04023400de030000e5
:020000040000fa
:04023800de030000e1
:020000040000fa
:04023c00de030000dd
:020000040000fa
:04024000de030000d9
:020000040000fa
:04024400de030000d5
:020000040000fa
:04024800de030000d1
:020000040000fa
:04024c00de030000cd
:020000040000fa
:04025000de030000c9
:020000040000fa
:04025400de030000c5
:020000040000fa
:04025800de030000c1
:020000040000fa
:04025c00de030000bd
:020000040000fa
:04026000de030000b9
:020000040000fa
:04026400de030000b5
:020000040000fa
:04026800de030000b1
:020000040000fa
:04026c00de030000ad
:020000040000fa
:04027000de030000a9
:020000040000fa
:04027400de030000a5
:020000040000fa
:04027800de030000a1
:020000040000fa
:04027c00de0300009d
:020000040000fa
:04028000de03000099
:020000040000fa
:04028400de03000095
:020000040000fa
:04028800de03000091
:020000040000fa
:04028c00de0300008d
:020000040000fa
:04029000de03000089
:020000040000fa
:04029400de03000085
:020000040000fa
:04029800de03000081
:020000040000fa
:04029c00de0300007d
:020000040000fa
:0402a000de03000079
:020000040000fa
:0402a400de03000075
:020000040000fa
:0402a800de03000071
:020000040000fa
:0402ac00de0300006d
:020000040000fa
:0402b000de03000069
:020000040000fa
:0402b400de03000065
:020000040000fa
:0402b800de03000061
:020000040000fa
:0402bc00de0300005d
:020000040000fa
:0402c000de03000059
:020000040000fa
:0402c400de03000055
:020000040000fa
:0402c800de03000051
:020000040000fa
:0402cc00de0300004d
:020000040000fa
:0402d000de03000049
:020000040000fa
:0402d400de03000045
:020000040000fa
:0402d800de03000041
:020000040000fa
:0402dc00de0300003d
:020000040000fa
:0402e000de03000039
:020000040000fa
:0402e400de03000035
:020000040000fa
:0402e800de03000031
:020000040000fa
:0402ec00de0300002d
:020000040000fa
:0402f000de03000029
:020000040000fa
:0402f400de03000025
:020000040000fa
:0402f800de03000021
:020000040000fa
:0402fc00de0300001d
:020000040000fa
:04030000de03000018
:020000040000fa
:04030400de03000014
:020000040000fa
:04030800de03000010
:020000040000fa
:04030c00de0300000c
:020000040000fa
:04031000de03000008
:020000040000fa
:10040000cf0521000eff24000e018800000000002f
:10041000000020000000e000020032000001200087
:100420002002880014000700e60007000000e0003a
:1004300003003a0040e520000100200002003700e0
:100440000000200001002000810f70000100320038
:100450000f000700000020000000e0000200320052
:100460000000020000000000b205020000000000d1
:100470000040da000000fe00200020000000e00044
:1004800002003200100020009001880000000600e9
:10049000a1028800800478000000eb001f003700f4
:1004a000e284440054a0b4009905ba00e2844400f8
:1004b00054a0b4009906ba00e284440054a0b400e9
:1004c0000006eb00476fde00fd07b200ae018800ba
:1004d000636ce10003003a000ad801000000eb0061
:1004e0000e003700606ce10008003a00004deb00a0
:1004f0000a05e800020039003420ec000af0a000f0
:100500008b05e900f9ff3e00040037006168e10057
:10051000010032000086eb000b00070019c7ba008b
:100520000e04e0001905ba0003003a000a00e000da
:10053000dbff3a0000000600fe07b200ae028800b2
:100540008a047800f5ff37000cd0a300e20f4d00bd
:100550001c00390089027800354dba000a05e80010
:10056000020039003420ec000af0a0008b05e900fd
:100570000f003200254dba000a05e80002003900dc
:100580003420ec000af0a0008b05e90008003200de
:100590000c00e0000600320015cdba000a05e800a4
:1005a000020039003420ec000af0a0008b05e900bd
:1005b0008984e80054a0b4000b00e000e2ff3a0098
:1005c000000006009902ba00055d78008b05e9007d
:1005d000f7ff3200c82ade00055d78008b05e900d0
:1005e000f3ff32000c00e000f1ff320019ddba0029
:1005f000eeff3700aa0d040000000000d60c040036
:100600000000000042040400000000003600f80072
:10061000c028a9000000eb00e50507003600f8003f
:10062000e7050700c048a90010002000e00507000a
:100630003600f800c068a90020002000dc05070093
:100640003600f800c088a90030002000d805070057
:100650003600f800c0a8a90040002000d40507001b
:100660003600f800c608a90070002000d005070079
:100670003600f80021468000001020000080600055
:100680000000e00003003200c508a900c0002000ff
:10069000c705070021468000000028000080600098
:1006a0000000e00003003200c5e8a900800020003f
:1006b000bf05070021468000000220000080600086
:1006c0000000e00003003200c4a8a9009000200050
:1006d000b705070020468000700060000000e000c1
:1006e00003003200c488a900a0002000b005070064
:1006f000ffff37003600f800809fbe00829fbe00db
:10070000849fbe00869fbe000000fa00104080005b
:10071000680060000000e00006003200b080800049
:100720000000e00002003200b08080000000010004
:100730000268a9000080fa004f03be004f02be000d
:100740004f01be004f00be003600f9000040060019
:100750003600f800809fbe00829fbe00849fbe00ce
:10076000869fbe000000fa00c08080000000e0000c
:1007700002003200c080800000000100b0052100ae
:10078000104078008040e800b00521000148780062
:10079000a005210011c0b3000148780000e8a900bd
:1007a0000080fa004f03be004f02be004f01be00a2
:1007b0004f00be003600f900004006000040da009d
:1007c0000000fe00000005006022b80006022000c4
:1007d0000000d0008180d2000482d2008582d20045
:1007e0000000a0000202520083825a000300310080
:1007f0000202420083824a000000a1000603e900d1
:10080000f3ff3a0000000600800078000101780044
:100810003104e000fdff3a00000051000000060036
:020000040000fa
:100820000000fa000060fe000080fa0000000600f0
:100830000600fa0040479800186ea9004e4090004c
:10084000680207000040eb00660207000080fb0022
:10085000000f78000040eb00620207000080fb0000
:1008600010079800186ea8001e007800c500dd0073
:100870001e0090004300de00010070000080fa00be
:10088000000006000600fa00b1708000000022009f
:10089000008060000000e0006b003a00c000210012
:1008a00090007800c000210011009800c0002100d5
:1008b00090009000c000210021009800c00021009d
:1008c000a0009000c0002100310098000040eb0023
:1008d000004f7800390037000040eb0020479800b7
:1008e0001e80fb00c1002100008040009040780085
:1008f0004147980000c8b300304798000040eb0023
:10090000104798002400370000000000b1708000fc
:1009100000002100008060000000e000fbff3200ca
:10092000ce4090003e40900000c060000004e00017
:1009300002003200194ea80001003700194ea9002c
:100940003e4090000080fb000000d100304798003e
:100950002e4090000040400020479800000000001a
:10096000b170800000002100008060000000e00005
:10097000fbff3a00b07080004b00de006140600079
:10098000ae40900000c07000204798001e409000cc
:100990000040e800104798001e409000e74f5000cc
:1009a000d9ff36001e80fb000100210000804000be
:1009b000ae409000014878001e4fe8001e407800cd
:1009c000e74f5000c4ff360000002100900078007f
:1009d0000000210030009000808f500010003a008d
:1009e000000021009000780000002100200090000d
:1009f000808f50000a003a0000002100900078002b
:100a00000000210010009000808f500004003a0088
:100a10000000210010007800508088000830ef00ae
:100a2000408080000000e800408088004080800016
:100a3000e40f500005003600500020004080880080
:100a40000a30ef0001003700000000000080fa00cb
:100a5000000006000600fa00200798002e00900013
:100a6000e70f500002003e000000eb0022003700bc
:100a70002e009000680050008000eb00008fbe0048
:100a80009e009000d07f28008089b9001e00780069
:100a9000e100b900000141009e007800d07f2800ed
:100aa0000008b8000101410082007800008fbe00fc
:100ab000008fbe001e0078009e009000723e200055
:100ac0000300200040ff0700008fbe00220320002b
:100ad000030020001e0f41005e9749001e007800b1
:100ae0009e009000420620000300200036ff070011
:100af000008fbe001e0078000080fa000000060093
:100b00000600fa00200798002e0090008000eb00fd
:100b1000c26328008289b900e102b900840178002b
:100b200003014100c36328000300b8000101410034
:100b300082007800008fbe00008fbe001e0078008b
:100b40009e009000d27f2800130020001eff0700a7
:100b5000008fbe001e007800680040000080fa0090
:100b6000000006000800fa004304070020442000ab
:100b7000fb030700262cef0040ba2700a106200047
:100b80007004070026ff070080c0b300b100070013
:100b90000000eb00000f78000000eb001007980049
:100ba0000040eb00404798000040eb0050479800a1
:100bb0001bff070000c0eb001dff0700a5ff07009b
:100bc00030079800c0002100be00900001087800a6
:100bd00051808000f0ff200000806000c8ff070007
:100be00010079800508080004f00de0040479800ba
:100bf00051808000000024000080600000f0a70009
:100c00000000ea000000ea004f00de0050479800b4
:100c10004e4090000004e00003003200002c210050
:100c2000000f7800020037000000eb00000f780092
:100c30009e00780031618800ddff37000200fa0075
:100c4000004f780010c0b300570007000000e0001c
:100c500002003200100020000b0037008009210044
:100c6000110020003704070000c8b3009e40780040
:100c700080cf500002003a00100020000200370030
:100c80001e407800480007000080fa0000000600bf
:100c90000600fa0020079800730107000000e0003a
:100ca00002003200100020003d003700c0c7b30032
:100cb0008a0107000000e00002003200100020005e
:100cc00037003700c8010700e24f500002003a0029
:100cd00010002000320037002e009000cafe0700ee
:100ce0002047980010c0b300104798002700370035
:100cf00000ccb300004f78009e4090002e40900042
:100d000080cf500002003a0000c4b300004f7800ca
:100d10001e407800710107000000e0000200320070
:100d2000100020001e003700af010700e24f500006
:100d300002003a0010002000190037002e00900039
:100d400010407800004f78002e0090000000e8006e
:100d5000200798001e407800600107000000e000b6
:100d600002003200100020000d0037009e01070035
:100d7000e24f500002003a00100020000800370047
:100d80001e4090000040e800104798009e409000f0
:100d90002e40900080cf5000d5ff34004201070064
:100da0000080fa00000006000200fa00004f780000
:100db0002d0107000000e0000200320010002000ba
:100dc00022003700c0c7b300440107000000e00064
:100dd00002003200100020001c00370082010700d2
:100de000e24f500002003a001000200017003700c8
:100df0000040eb00390107000000e0000200320073
:100e0000100020001100370077010700e24f50006a
:100e100002003a00100020000c0037001e4078004d
:100e20002e0107000000e000020032001000200048
:100e3000060037006c010700e24f500002003a0044
:100e40001000200001003700170107000080fa00a1
:100e5000000006000200fa00004f7800b07d290073
:100e6000a1022000b703070080c3b300ceff070034
:100e70000000e000020032001000200051003700a6
:100e8000d082200001002000ae03070090c3b30011
:100e9000c5ff07000000e000020032001000200043
:100ea00048003700d082200001002000a503070081
:100eb00040c1b300bcff07000000e00002003200a8
:100ec000100020003f003700d082200001002000e9
:100ed0009c0307009e4078006fc060000047b00090
:100ee000b1ff07000000e000020032001000200007
:100ef00034003700d0822000010020009103070059
:100f00001e80fb004400de00004078004045b00039
:100f1000a5ff07000000e0000200320010002000e2
:100f200028003700d0822000010020008503070040
:100f3000c0c6b3009cff07000000e00002003200c2
:100f4000100020001f00370090742f00410d20007a
:100f50007c03070080c3b30093ff07000000e0009c
:100f6000020032001000200016003700d08220005e
:100f70000100200073030700c0c0b3008aff070010
:100f80000000e00002003200100020000d003700d9
:100f9000d0822000010020006a03070010c0b300c7
:100fa00081ff07000000e000020032001000200076
:100fb0000400370010132200210020006103070005
:100fc0000000eb000080fa00000006000000fa00bc
:100fd0005003200010138800100020002013880008
:100fe000c0002800001388000080fa0000000600fe
:100ff0000400fa00000f78001107980000000000bc
:1010000000138000620060000000e000fcff3a0076
:101010001e007800104078000080fb00401388001c
:10102000000000000113800000022000008060002a
:101030000000e000fbff3a00401380008040780091
:101040001e009000014878000080fa0000000600b1
:101050001800fa00100f9800210f9800320f980026
:101060000000eb00000f78000000eb001007980074
:101070000000eb00700798000000eb00000f9800e4
:1010800010002000600798001e0890000000e0009b
:1010900005003a000000eb00500798007000470080
:1010a0002007980004003700ee00900051079800d8
:1010b0009e089000210798003e0890000000e00084
:1010c00005003a000000eb00400798006e00470062
:1010d0003007980005003700ee00900041079800a7
:1010e000be08900031079800000000000013800047
:1010f000620060000000e000fcff3a001d003700c5
:1011000000138000620060000000e00009003a0067
:101110002e009000104078000080fb0040138800f3
:10112000ae0090005e009000008040002007980014
:101130001e0fe80001138000000220000080600004
:101140000000e0000b003a0040138000804078006f
:101150003e00900001487800be0090004e009000d4
:1011600000804000300798001e0090000000e8005a
:10117000100798002e0890009e007800808f500085
:10118000dfff39001000370001138000000220004b
:10119000008060000000e0000b003a004013800077
:1011a000804078003e00900001487800be0090002a
:1011b0004e00900000804000300798001e00900014
:1011c0000000e800100798009e0090002e08900094
:1011d000808f5000ecff39001e0078000080fa007c
:1011e000000006000400fa00204798000e80e80086
:1011f0008e0078007eff07001e4078000080fa0015
:10120000000006000600fa00000f780011079800a1
:10121000220798002e0190009e0090001e0078008a
:101220008bff07000080fa00000006000000fa00b3
:101230001113800000402000008060000000e000ea
:1012400002003a000000eb0001003700100020000f
:101250000080fa00000006000000fa000013800081
:101260000080fa00000006000000fa0014aea90099
:1012700018aea80014cea90018cea800b00820000f
:1012800001002000af02070018aea900b00820003e
:1012900001002000ab02070018cea9000000eb00ff
:1012a0000080fa00000006000000fa0014aea90059
:1012b00018aea90014cea90018cea800b0082000ce
:1012c000010020009f02070014aea80014cea80061
:1012d0000000eb000080fa00000006000400fa00a5
:1012e0002047980014aea90014cea900ae4090008b
:1012f000014f780080c0b3001047980014003700f9
:101300001e4078000004e00002003d0018aea80076
:101310000100370018aea9001e40780000404000d0
:10132000004f780018cea8007011200001002000a6
:101330008402070018cea900100d20000100200033
:10134000800207001e4090000040e900104798000e
:101350001e4090000004e000e9ff3a0014aea8002f
:101360000000eb000080fa00000006000200fa0016
:1013700014aea80014cea90080c0b3001047980096
:101380001300370050042000010020006d02070008
:1013900018cea8001e40780000404000004f7800a2
:1013a000b170800000022000008060000000e000ba
:1013b000020032001e04a000010037001e04a1003c
:1013c00018cea9001e4090000040e9001047980088
:1013d0001e4090000004e000eaff3a001e40780042
:1013e0000080fa00000006000200fa0014aea80017
:1013f00014cea90018cea80050042000010020003f
:1014000050020700b07080004500de0061406000bf
:10141000004f780018cea9001e4078000080fa0026
:10142000000006000000fa0014aea90018aea900e2
:1014300014cea90050042000010020004102070042
:1014400018cea800b0082000010020003d020700cf
:1014500018cea90014aea8000000eb000080fa002e
:10146000000006000000fa0014aea90018aea800a3
:1014700014cea90018cea8005004200001002000be
:101480003002070018cea9005004200001002000ff
:101490002c02070014aea8000000eb000080fa0048
:1014a000000006000000fa00022cef00009021006e
:1014b00020608800062cef000a2cef001a2cef00a9
:1014c0001e2cef000008200000618800402cef0077
:1014d000602cef0000402400e3c120001132240002
:1014e000d2bc2a0082097800810978001061880046
:1014f0000000eb00e3c1200011322400d2bc2a001e
:101500008209780081097800106288000000eb00f1
:10151000e3c1200011322400d2bc2a0082097800e5
:10152000810978001063880030442200e3c1200064
:1015300011322400d2bc2a00820978008109780087
:1015400020618800800f2000e3c1200011322400b8
:10155000d2bc2a00820978008109780020628800c4
:10156000800f2000e3c1200011322400d2bc2a00e9
:10157000820978008109780020638800262cef001a
:10158000462cef00662cef00282cef00482cef00d3
:10159000682cef002a2cef004a2cef006a2cef0099
:1015a0002c2cef004c2cef006c2cef00322cef00b9
:1015b000522cef00722cef00342cef00542cef0073
:1015c000742cef00382cef00582cef00782cef0033
:1015d0003a2cef005a2cef007a2cef003c2cef0055
:1015e0005c2cef007c2cef003e2cef005e2cef001b
:1015f0007e2cef0000002800006088000080fa00c8
:10160000000006000000fa000080fa00000006005a
:101610000000fa00314080000020200000806000bf
:101620000000e00002003200f6ff07000728a900d2
:101630000080fa00000006000000fa000080fa00b6
:10164000000006000000fa00314080000020200069
:10165000008060000000e00002003200f6ff07009a
:101660000bc8a9000080fa00000006000000fa0084
:101670000080fa00000006000000fa0031408000ff
:1016800000202000008060000000e0000200320026
:10169000f6ff07000be8a9000080fa000000060032
:1016a0000000fa000080fa00000006000000fa00c6
:1016b0003140800000202000008060000000e00039
:1016c00002003200f6ff07000c08a9000080fa00b3
:1016d000000006000000fa00003a80000080fa00d6
:1016e000000006000200fa00faff0700000f780071
:1016f0001e007800240007000004e0000200320011
:1017000000002800710007001e0078002a00070072
:101710000004e00002003200000024006b0007001b
:101720001e007800320007000004e00002003200d2
:1017300000202000650007001e0078003a00070026
:101740000004e00002003200000820005f000700f3
:101750001e007800420007000004e0000200320092
:1017600000042000590007001e0078004a0007000e
:101770000004e000020032000001200053000700d6
:101780000080fa00000006000400fa00100798002c
:101790000040eb00004f78001e0090000000e000c9
:1017a00002003d0010c0b300004f78001e407800da
:1017b0000080fa00000006000400fa0010079800fc
:1017c0000040eb00004f78009e00900000002400d5
:1017d000008060000000e0000200320010c0b30092
:1017e000004f78001e4078000080fa0000000600dc
:1017f0000400fa00100798000040eb00004f78004a
:101800009e00900000202000008060000000e000aa
:101810000200320010c0b300004f78001e40780074
:101820000080fa00000006000400fa00100798008b
:101830000040eb00004f78009e0090000008200060
:10184000008060000000e0000200320010c0b30021
:10185000004f78001e4078000080fa00000006006b
:101860000400fa00100798000040eb00004f7800d9
:101870009e00900000042000008060000000e00056
:101880000200320010c0b300004f78001e40780004
:101890000080fa00000006000400fa00100798001b
:1018a0000040eb00004f78001e00900070006000c8
:1018b0000000e0000200320010c0b300004f7800ca
:1018c0001e4078000080fa00000006000200fa00c6
:1018d000000f78009e80ea00003a800000806000df
:1018e000003a88000080fa00000006000000fa00bc
:1018f0004027ef000080fa00000006000000fa0018
:101900000621ef0050aa200060088800000328008c
:1019100080088800c08080000000e00002003a00db
:1019200060cd20002400070000e8a90020e8a800fe
:10193000a00521008040eb00014878000080fa00fb
:10194000000006000200fa00000f78009e007800f8
:1019500061088800a00521008040eb000148780064
:101960000080fa00000006000000fa006008800015
:101970000080fa00000006000200fa00000f780064
:101980009e00780031088800a00521008040eb000f
:10199000014878000080fa00000006000000fa000c
:1019a000300880000080fa00000006000000fa0005
:1019b0000080fa00000006000200fa00000f780024
:1019c00020e8a9009e007800c180880020e8a800d7
:1019d0000080fa00000006000000fa00a0052100c7
:1019e0008040eb000148780020e8a80011e1a80041
:1019f0000080fa00000006000000fa0011e1a900d2
:101a000020e8a9000080fa00000006000200fa00a9
:101a1000a0052100104f78001e4078000004e0006f
:101a200003003200a00521008040eb00014878004f
:101a30001e4078000080fa00000006000000fa0056
:101a4000b0052100104078000080fb000080fa0003
:101a5000000006000000fa00b00521008040eb0005
:101a6000014878000080fa00000006000000fa003b
:101a70002000200020708800182eef00f0002000c9
:101a80000070880070a82700a07088000c2eef005e
:101a9000202eef000a2eef0000082000f0708800d2
:101aa000062eef001a2eef00100020007070880044
:101ab0004000200010718800113a8000f00b2000d7
:101ac0000081600060042000710520002374200064
:101ad00080497800814978008249780030c1b3009c
:101ae000cce6b70040c1b300cde6b700813380003b
:101af00000fc2f00008060009000b300803388005d
:101b00009133800000fc2f00008060000030a000b6
:101b100090338800103a8000000178000260a00035
:101b200060042000710520002374200080497800a3
:101b300081497800824978001daea800a0da200013
:101b4000070007000268a9002268a8000080fa00c8
:101b5000000006000000fa000080fa000000060005
:101b60000200fa00000f78002268a9009e007800a9
:101b7000b18088002268a8000080fa0000000600fa
:101b80000200fa00000f78001e007800f4ff070042
:101b90000080fa00000006000000fa000020230088
:101ba000203a88004827ef004e27ef00d01220008f
:101bb000303a88006027ef006227ef006427ef00cb
:101bc0006627ef006a27ef006c27ef006e27ef0013
:101bd0001200200080072000a1092000337420009b
:101be00080497800814978008249780012002000fd
:101bf00060042000710520002374200080497800d3
:101c0000814978008249780000000000103a800085
:101c1000610060000000e000fcff3a0000000000ee
:101c2000113a800000022000008060000000e00007
:101c3000fbff32000080fa00000006000200fa00fc
:101c4000000f780021028000200f2000008060003b
:101c50001e007000200288000080fa0000000600cc
:101c60000000fa00c3e8a800000000000000000027
:101c70000080fa00000006000000fa007bff070069
:101c8000c5ff07003d000700d0fc070005fe070068
:101c90001aff0700f2ff070000022000e7ff07001d
:081ca0000080fa0000000600bc
:020000040000fa
:101ca8001a1000002000000080000000141000003e
:101cb8000200000082000000ffff00001610000074
:101cc80002000000800000005a100000020000001e
:101cd80080000000181000000200000080000000d2
:101ce8003a100000200000008000000000100000f2
:0c1cf8001400000080000000000000004c
:020000040000fa
:101d04000000fa00a3ff07000080fa0000000600ac
:101d14000000fa00003a80000080fa00000006008b
:101d24000000fa006efe07000080fa0000000600c2
:101d34000000fa00ecfe07000080fa000000060034
:020000040000fa
:101d4400f03fb1000180b10006003500ee03090048
:101d540000000000403fb1000180b100fbff3d00e6
:101d64001000b000203fb0000200350000800900e0
:081d7400000000000000060061
:020000040000fa
:101d7c000000fa00414280000000270001007000c2
:101d8c004042880011428000f0ff280080806000f3
:101d9c000000230001007000104288000080fa004f
:101dac0000000600000f78009e007800a1808800db
:101dbc00ffff37000000fa00a00121008007780027
:101dcc0020032100000188000080fa0000000600ba
:020000040000fa
:020000040005f5
:04570000ffffff00a8
:020000040000fa
:020000040005f5
:04572000ffff000087
:020000040000fa
:020000040005f5
:04573000f8ff00007e
:020000040000fa
:020000040005f5
:045738007bff0000f3
:020000040000fa
:020000040005f5
:0457400095ff0000d1
:020000040000fa
:020000040005f5
:04574800ffff00005f
:020000040000fa
:020000040005f5
:04575000fdff000059
:020000040000fa
:020000040005f5
:04575800000000004d
:020000040000fa
:020000040005f5
:045760000000000045
:020000040000fa
:020000040005f5
:04576800000000003d
:020000040000fa
:020000040005f5
:045770000000000035
:020000040000fa
:020000040005f5
:04577800feff000030
:020000040000fa
:020000040005f5
:04578000ffff000027
:020000040000fa
:020000040005f5
:04578800ffff00001f
:00000001FF
