:020000040000fa
:080000000002040000000000f2
:020000040000fa
:0400080006030000eb
:020000040000fa
:04000c0018030000d5
:020000040000fa
:0400100030030000b9
:020000040000fa
:040014000e030000d7
:020000040000fa
:0400180020030000c1
:020000040000fa
:04001c0028030000b5
:020000040000fa
:0400200038030000a1
:020000040000fa
:04002400b003000025
:020000040000fa
:04002800b003000021
:020000040000fa
:04002c00b00300001d
:020000040000fa
:04003000b003000019
:020000040000fa
:04003400b003000015
:020000040000fa
:04003800b003000011
:020000040000fa
:04003c00b00300000d
:020000040000fa
:04004000b003000009
:020000040000fa
:040044007a0300003b
:020000040000fa
:04004800b003000001
:020000040000fa
:04004c00b0030000fd
:020000040000fa
:04005000b0030000f9
:020000040000fa
:04005400b0030000f5
:020000040000fa
:04005800b0030000f1
:020000040000fa
:04005c00b0030000ed
:020000040000fa
:04006000b0030000e9
:020000040000fa
:04006400b0030000e5
:020000040000fa
:04006800b0030000e1
:020000040000fa
:04006c00b0030000dd
:020000040000fa
:04007000b0030000d9
:020000040000fa
:04007400b0030000d5
:020000040000fa
:04007800b0030000d1
:020000040000fa
:04007c00b0030000cd
:020000040000fa
:04008000b0030000c9
:020000040000fa
:04008400b0030000c5
:020000040000fa
:04008800b0030000c1
:020000040000fa
:04008c00b0030000bd
:020000040000fa
:04009000b0030000b9
:020000040000fa
:04009400b0030000b5
:020000040000fa
:04009800b0030000b1
:020000040000fa
:04009c00b0030000ad
:020000040000fa
:0400a000b0030000a9
:020000040000fa
:0400a400b0030000a5
:020000040000fa
:0400a800b0030000a1
:020000040000fa
:0400ac00b00300009d
:020000040000fa
:0400b000b003000099
:020000040000fa
:0400b400b003000095
:020000040000fa
:0400b800b003000091
:020000040000fa
:0400bc00b00300008d
:020000040000fa
:0400c000b003000089
:020000040000fa
:0400c400b003000085
:020000040000fa
:0400c800b003000081
:020000040000fa
:0400cc00b00300007d
:020000040000fa
:0400d000b003000079
:020000040000fa
:0400d400b003000075
:020000040000fa
:0400d800b003000071
:020000040000fa
:0400dc00b00300006d
:020000040000fa
:0400e000b003000069
:020000040000fa
:0400e400b003000065
:020000040000fa
:0400e800b003000061
:020000040000fa
:0400ec00b00300005d
:020000040000fa
:0400f000b003000059
:020000040000fa
:0400f400b003000055
:020000040000fa
:0400f800b003000051
:020000040000fa
:0400fc00b00300004d
:020000040000fa
:04010000b003000048
:020000040000fa
:04010400b003000044
:020000040000fa
:04010800b003000040
:020000040000fa
:04010c00b00300003c
:020000040000fa
:04011000b003000038
:020000040000fa
:04011400b003000034
:020000040000fa
:04011800b003000030
:020000040000fa
:04011c00b00300002c
:020000040000fa
:04012000b003000028
:020000040000fa
:04012400b003000024
:020000040000fa
:04012800b003000020
:020000040000fa
:04012c00b00300001c
:020000040000fa
:04013000b003000018
:020000040000fa
:04013400b003000014
:020000040000fa
:04013800b003000010
:020000040000fa
:04013c00b00300000c
:020000040000fa
:04014000b003000008
:020000040000fa
:04014400b003000004
:020000040000fa
:04014800b003000000
:020000040000fa
:04014c00b0030000fc
:020000040000fa
:04015000b0030000f8
:020000040000fa
:04015400b0030000f4
:020000040000fa
:04015800b0030000f0
:020000040000fa
:04015c00b0030000ec
:020000040000fa
:04016000b0030000e8
:020000040000fa
:04016400b0030000e4
:020000040000fa
:04016800b0030000e0
:020000040000fa
:04016c00b0030000dc
:020000040000fa
:04017000b0030000d8
:020000040000fa
:04017400b0030000d4
:020000040000fa
:04017800b0030000d0
:020000040000fa
:04017c00b0030000cc
:020000040000fa
:04018000b0030000c8
:020000040000fa
:04018400b0030000c4
:020000040000fa
:04018800b0030000c0
:020000040000fa
:04018c00b0030000bc
:020000040000fa
:04019000b0030000b8
:020000040000fa
:04019400b0030000b4
:020000040000fa
:04019800b0030000b0
:020000040000fa
:04019c00b0030000ac
:020000040000fa
:0401a000b0030000a8
:020000040000fa
:0401a400b0030000a4
:020000040000fa
:0401a800b0030000a0
:020000040000fa
:0401ac00b00300009c
:020000040000fa
:0401b000b003000098
:020000040000fa
:0401b400b003000094
:020000040000fa
:0401b800b003000090
:020000040000fa
:0401bc00b00300008c
:020000040000fa
:0401c000b003000088
:020000040000fa
:0401c400b003000084
:020000040000fa
:0401c800b003000080
:020000040000fa
:0401cc00b00300007c
:020000040000fa
:0401d000b003000078
:020000040000fa
:0401d400b003000074
:020000040000fa
:0401d800b003000070
:020000040000fa
:0401dc00b00300006c
:020000040000fa
:0401e000b003000068
:020000040000fa
:0401e400b003000064
:020000040000fa
:0401e800b003000060
:020000040000fa
:0401ec00b00300005c
:020000040000fa
:0401f000b003000058
:020000040000fa
:0401f400b003000054
:020000040000fa
:0401f800b003000050
:020000040000fa
:0401fc00b00300004c
:020000040000fa
:04020000b003000047
:020000040000fa
:04020400b003000043
:020000040000fa
:04020800b00300003f
:020000040000fa
:04020c00b00300003b
:020000040000fa
:04021000b003000037
:020000040000fa
:04021400b003000033
:020000040000fa
:04021800b00300002f
:020000040000fa
:04021c00b00300002b
:020000040000fa
:04022000b003000027
:020000040000fa
:04022400b003000023
:020000040000fa
:04022800b00300001f
:020000040000fa
:04022c00b00300001b
:020000040000fa
:04023000b003000017
:020000040000fa
:04023400b003000013
:020000040000fa
:04023800b00300000f
:020000040000fa
:04023c00b00300000b
:020000040000fa
:04024000b003000007
:020000040000fa
:04024400b003000003
:020000040000fa
:04024800b0030000ff
:020000040000fa
:04024c00b0030000fb
:020000040000fa
:04025000b0030000f7
:020000040000fa
:04025400b0030000f3
:020000040000fa
:04025800b0030000ef
:020000040000fa
:04025c00b0030000eb
:020000040000fa
:04026000b0030000e7
:020000040000fa
:04026400b0030000e3
:020000040000fa
:04026800b0030000df
:020000040000fa
:04026c00b0030000db
:020000040000fa
:04027000b0030000d7
:020000040000fa
:04027400b0030000d3
:020000040000fa
:04027800b0030000cf
:020000040000fa
:04027c00b0030000cb
:020000040000fa
:04028000b0030000c7
:020000040000fa
:04028400b0030000c3
:020000040000fa
:04028800b0030000bf
:020000040000fa
:04028c00b0030000bb
:020000040000fa
:04029000b0030000b7
:020000040000fa
:04029400b0030000b3
:020000040000fa
:04029800b0030000af
:020000040000fa
:04029c00b0030000ab
:020000040000fa
:0402a000b0030000a7
:020000040000fa
:0402a400b0030000a3
:020000040000fa
:0402a800b00300009f
:020000040000fa
:0402ac00b00300009b
:020000040000fa
:0402b000b003000097
:020000040000fa
:0402b400b003000093
:020000040000fa
:0402b800b00300008f
:020000040000fa
:0402bc00b00300008b
:020000040000fa
:0402c000b003000087
:020000040000fa
:0402c400b003000083
:020000040000fa
:0402c800b00300007f
:020000040000fa
:0402cc00b00300007b
:020000040000fa
:0402d000b003000077
:020000040000fa
:0402d400b003000073
:020000040000fa
:0402d800b00300006f
:020000040000fa
:0402dc00b00300006b
:020000040000fa
:0402e000b003000067
:020000040000fa
:0402e400b003000063
:020000040000fa
:0402e800b00300005f
:020000040000fa
:0402ec00b00300005b
:020000040000fa
:0402f000b003000057
:020000040000fa
:0402f400b003000053
:020000040000fa
:0402f800b00300004f
:020000040000fa
:0402fc00b00300004b
:020000040000fa
:04030000b003000046
:020000040000fa
:04030400b003000042
:020000040000fa
:04030800b00300003e
:020000040000fa
:04030c00b00300003a
:020000040000fa
:04031000b003000036
:020000040000fa
:100400008f0d21000eff24000e0188000000000067
:10041000000020000000e000020032000001200087
:100420002002880014000700cf0007000000e00051
:1004300003003a00e0132100010020000200370011
:100440000000200001002000810f70000100320038
:100450000f000700000020000000e0000200320052
:100460000000020000000000620502000000000021
:100470000040da000000fe00200020000000e00044
:1004800002003200100020009001880000000600e9
:10049000a1028800800478000000eb001f003700f4
:1004a000e284440054a0b4009905ba00e2844400f8
:1004b00054a0b4009906ba00e284440054a0b400e9
:1004c0000006eb00476fde00fd07b200ae018800ba
:1004d000636ce10003003a000ad801000000eb0061
:1004e0000e003700606ce10008003a00004deb00a0
:1004f0000a05e800020039003420ec000af0a000f0
:100500008b05e900f9ff3e00040037006168e10057
:10051000010032000086eb000b00070019c7ba008b
:100520000e04e0001905ba0003003a000a00e000da
:10053000dbff3a0000000600fe07b200ae028800b2
:100540008a047800f5ff37000cd0a300e20f4d00bd
:100550001c00390089027800354dba000a05e80010
:10056000020039003420ec000af0a0008b05e900fd
:100570000f003200254dba000a05e80002003900dc
:100580003420ec000af0a0008b05e90008003200de
:100590000c00e0000600320015cdba000a05e800a4
:1005a000020039003420ec000af0a0008b05e900bd
:1005b0008984e80054a0b4000b00e000e2ff3a0098
:1005c000000006009902ba00055d78008b05e9007d
:1005d000f7ff3200c82ade00055d78008b05e900d0
:1005e000f3ff32000c00e000f1ff320019ddba0029
:1005f000eeff37009e0f040000000000d61004003c
:100600000000000044050400000000003600f8006f
:10061000c028a9000000eb004d0707003600f800d5
:100620004f070700c048a900100020004807070036
:100630003600f800c068a900200020004407070029
:100640003600f800c088a9003000200040070700ed
:100650003600f800c0a8a900400020003c070700b1
:100660003600f800c608a90070002000380707000f
:100670003600f80021468000001020000080600055
:100680000000e00003003200c508a900c0002000ff
:100690002f0707002146800000002800008060002e
:1006a0000000e00003003200c5e8a900800020003f
:1006b000270707002146800000022000008060001c
:1006c0000000e00003003200c4a8a9009000200050
:1006d0001f07070020468000700060000000e00057
:1006e00003003200c488a900a000200018070700fa
:1006f000ffff37003600f800809fbe00829fbe00db
:10070000849fbe00869fbe000000fa00908080009b
:100710000000e00002003200908080000000010034
:10072000700d2100104078008040e800700d21001d
:1007300001487800600d210011c0b3000148780025
:1007400000e8a9000080fa004f03be004f02be007f
:100750004f01be004f00be003600f9000040060009
:100760000040da000000fe00000005006022b80032
:10077000060220000000d0008180d2000482d20056
:100780008582d2000000a0000202520083825a003b
:10079000030031000202420083824a000000a100ef
:1007a0000603e900f3ff3a0000000600800078002d
:1007b000010178003104e000fdff3a000000510023
:0407c000000006002f
:020000040000fa
:1007c4000200fa00000f78001e007800e10f5000cc
:1007d40009003200e10f500005003900e20f50001b
:1007e40007003200e30f5000070032000800370012
:1007f40001eba8000600370011eba8000400370045
:1008040021eba8000200370031eba8000000000033
:100814000080fa00000006000400fa00000f7800cf
:10082400110798001e007800e10f50000b00320001
:10083400e10f500005003900e20f50000b003200b8
:10084400e30f50000d003200100037009e009000ae
:1008540021588800062bef000c0037009e00900002
:10086400a1588800162bef00080037009e00900066
:1008740021598800262bef00040037009e009000c9
:10088400a1598800362bef00000000000080fa0018
:10089400000006000400fa00000f78001107980019
:1008a4001e007800e10f50000a003200e10f5000f2
:1008b40005003900e20f500009003200e30f500038
:1008c4000a0032000c0037009e0090006158880036
:1008d400090037009e009000e158880006003700a8
:1008e4009e00900061598800030037009e0090002c
:1008f400e1598800000000000080fa0000000600b2
:100904000000fa000060fe000080fa00000006000b
:100914000600fa0040479800186ea9004e40900067
:10092400330307000040eb00310307000080fb00a5
:10093400000f78000040eb002d0307000080fb004f
:1009440010079800186ea8001e007800c500dd008e
:100954001e0090004300de0081007000f0ff2000c4
:10096400008060000080fa00000006000600fa0023
:10097400200798002e009000e70f500002003e0070
:100984000000eb00240037002e00900068005000a7
:100994008000eb00008fbe009e00900000832800c2
:1009a4008089b9001e007800e100b900000141000f
:1009b4009e007800008328000008b800010141006f
:1009c40082007800008fbe00008fbe001e007800f9
:1009d4009e009000723e20000300200062ff07008a
:1009e400008fbe0022032000030020001e0f4100e0
:1009f4005e9749001e0078009e0090004206200089
:100a04000300200058ff0700008fbe009e007800fe
:100a1400f0ff2000008060000080fa000000060063
:100a24000600fa00200798002e0090008000eb00da
:100a3400c26328008289b900e102b9008401780008
:100a440003014100c36328000300b8000101410011
:100a540082007800008fbe00008fbe001e00780068
:100a64009e00900002832800130020003eff070030
:100a7400008fbe001e007800680040000080fa006d
:100a8400000006000000fa00508080000000e00032
:100a940003003200508080000000e900508088008c
:100aa400608080000000e00003003200608080006d
:100ab4000000e900608088000080fa000000060061
:100ac4001600fa00de050700405420001d0507004b
:100ad4000000eb003aff070000302000800078009f
:100ae4000000eb006bff070000002100800078008d
:100af4000000eb0048ff0700262cef00462cef0017
:100b0400192ea90040ba2700a106200001060700fb
:100b14007bff070080c0b300d10107000000eb0099
:100b2400000f78000000eb00100798000040eb0075
:100b3400404798000040eb00504798000040eb000d
:100b4400604798000040eb00704798000000eb00fd
:100b54004007980009003700000220003061880037
:100b6400605f2a00a1002000ea05070064ff070077
:100b74004e0090000000e80040079800ce0090006e
:100b8400b0122000808f5000f3ff360000c0eb004d
:100b94005fff070075ff07004080880041808000e8
:100ba40010032000808f500007003c000000eb0081
:100bb400000f780040c0b3000ef0b700803e200064
:100bc400608088000200370000902100000f780048
:100bd4000000eb0040079800090037004e00900029
:100be4008000400060012100008040008000eb0094
:100bf400010878004e0090000000e80040079800cb
:100c0400ce009000f0032000808f5000f3ff3600e8
:100c14003bff070000c0eb003dff070053ff070048
:100c2400408088000180800051079800de00900019
:100c340030b52000808f500002003e0040b52000f7
:100c440050079800de00900040d32000808f5000b1
:100c54000200360040d320005007980080b12200e3
:100c6400f10f200070079800010f98005e009000bb
:100c74008000eb000001be007e0090008e08900012
:100c8400b9fe070070079800010f9800fe0090005d
:100c9400110f98007e4090000004e0000200320032
:100ca400042ea80001003700042ea9006e40900015
:100cb4000004e00002003200040ea8000100370026
:100cc400040ea90080bb200055ff07002080880087
:100cd400208080000002b00030808800b070800066
:100ce4004b00de00614060004047980003d0bf0025
:100cf4000080fb0080004000600121000080400073
:100d040090007800210f980003d0bf008080fb0082
:100d14004280800081814000610121008180410086
:100d2400820878000040e80003f0b7003100210099
:100d340091407800f0c3b30080cf5000010036002a
:100d44000370ef004180800040808000808040007c
:100d54002e08900000805000600798006e009000fc
:100d64000000e00002003d000000eb006007980076
:100d7400608080000000e0000b0032000000eb0007
:100d8400000f78000000eb001007980010c0b300bb
:100d94007047980010c0b300404798000040eb0033
:100da40060479800a10037004e4090000004e00026
:100db4009600320000902100000f78005e40900001
:100dc4000004e0000e003a000000eb001007980059
:100dd4004180800020032000808f500003003400f5
:100de40050c0b3000ef0b70090003700a000200000
:100df4005080880020c0b3000ef0b7008b0037008d
:100e04000ed0bf00e24f500008003a0000902100cd
:100e140010079800508080000000e00083003a0032
:100e240030c0b3000ef0b700800037000ed0bf0012
:100e3400e34f50000e003a000000eb00100798004a
:100e44004180800020032000808f50000300340084
:100e540050c0b3000ef0b7007400370040c0b300b8
:100e64000ef0b700803e2000608088006f003700dd
:100e74000ed0bf00e44f500008003a000000eb0021
:100e840010079800608080000000e00067003200d6
:100e940010c0b30070479800640037000ed0bf0044
:100ea400e54f50002d003a00218080006e00900034
:100eb400808f5000090034001e0090007400400030
:100ec400100798009e0090001e089000808f50002c
:100ed400020036009e0890001107980021808000cf
:100ee4006e009000808f500015003d00318080001e
:100ef4006e009000808f50000b003d009e0090001b
:100f0400f0132000808f5000040034001e00900075
:100f14000014b10010079800090037000000eb002e
:100f240010079800060037001e0090000000e00043
:100f3400030034001e009000740050001007980055
:100f44002180800040808000808f500037003c006a
:100f540060c0b3000ef0b700340037000ed0bf00fd
:100f6400e64f500031003a0010c0b30060479800cb
:100f7400218080006e009000808f500009003400b2
:100f84001e0090000000e800100798009e009000ea
:100f94001e089000808f5000020036009e089000ca
:100fa40011079800218080006e009000808f50000f
:100fb4001e003d00318080006e009000808f500044
:100fc4000b003d009e009000f0132000808f500025
:100fd400040034001e0090000014b10010079800b3
:100fe400120037000000eb00100798000f003700d4
:100ff4001e0090000000e0000c0034001e00900071
:101004000000e90010079800080037000000eb001a
:10101400000f78000000eb00100798000040eb0080
:10102400704798000040eb00604798001e0078006d
:10103400306188001e00900030628800ce4090002d
:1010440051479800f2fe37000200fa00004f780082
:1010540010c0b300570007000000e0000200320097
:10106400100020000b00370080092100110020002f
:10107400a804070000c8b3009e40780080cf500049
:1010840002003a0010002000020037001e407800e1
:10109400480007000080fa00000006000600fa007d
:1010a40020079800730107000000e00002003200ee
:1010b400100020003d003700c0c7b3008a010700bc
:1010c4000000e0000200320010002000370037006a
:1010d400c8010700e24f500002003a00100020004f
:1010e400320037002e009000affd07002047980023
:1010f40010c0b300104798002700370000ccb3009d
:10110400004f78009e4090002e40900080cf500009
:1011140002003a0000c4b300004f78001e4078007b
:10112400710107000000e0000200320010002000fe
:101134001e003700af010700e24f500002003a00e2
:1011440010002000190037002e0090001040780095
:10115400004f78002e0090000000e800200798005f
:101164001e407800600107000000e0000200320029
:10117400100020000d0037009e010700e24f5000d0
:1011840002003a0010002000080037001e409000c2
:101194000040e800104798009e4090002e409000c8
:1011a40080cf5000d5ff3400420107000080fa00d0
:1011b400000006000200fa00004f78002d0107002d
:1011c4000000e0000200320010002000220037007e
:1011d400c0c7b300440107000000e0000200320071
:1011e400100020001c00370082010700e24f50006d
:1011f40002003a0010002000170037000040eb0006
:10120400390107000000e000020032001000200055
:101214001100370077010700e24f500002003a0046
:10122400100020000c0037001e4078002e0107003b
:101234000000e00002003200100020000600370029
:101244006c010700e24f500002003a001000200039
:1012540001003700170107000080fa0000000600b3
:101264000200fa00004f7800b07d2900a10220009e
:101274002804070080c3b300ceff07000000e0008d
:10128400020032001000200051003700d0822000fc
:10129400010020001f04070090c3b300c5ff07002e
:1012a4000000e00002003200100020004800370077
:1012b400d0822000010020001604070040c1b300c2
:1012c400bcff07000000e000020032001000200014
:1012d4003f003700d0822000010020000d040700e9
:1012e4009e4078006fc060000047b000b1ff070067
:1012f4000000e0000200320010002000340037003b
:10130400d082200001002000020407001e80fb00a0
:101314004400de00004078004045b000a5ff07000f
:101324000000e00002003200100020002800370016
:10133400d082200001002000f6030700c0c6b300dd
:101344009cff07000000e0000200320010002000b3
:101354001f00370090742f00410d2000ed0307009b
:1013640080c3b30093ff07000000e00002003200d6
:101374001000200016003700d08220000100200059
:10138400e4030700c0c0b3008aff07000000e000c8
:1013940002003200100020000d003700d08220002f
:1013a40001002000db03070010c0b30081ff070029
:1013b4000000e000020032001000200004003700aa
:1013c4001013220021002000d20307000000eb00cc
:1013d4000080fa00000006000000fa00500320001c
:1013e400101388001000200020138800c00028007b
:1013f400001388000080fa00000006000400fa00d0
:10140400000f78001107980000000000001380000e
:10141400620060000000e000fcff3a001e0078005b
:10142400104078000080fb0040138800000000009a
:101434000113800000022000008060000000e00032
:10144400fbff3a0040138000804078001e009000ab
:10145400014878000080fa00000006001800fa0035
:10146400100f9800210f9800320f98000000eb0035
:10147400000f78000000eb00100798000000eb005c
:10148400700798000000eb00000f98001000200087
:10149400600798001e0890000000e00005003a0074
:1014a4000000eb00500798007000470020079800e8
:1014b40004003700ee009000510798009e08900049
:1014c400210798003e0890000000e00005003a0063
:1014d4000000eb00400798006e00470030079800ba
:1014e40005003700ee00900041079800be08900008
:1014f40031079800000000000013800062006000c3
:101504000000e000fcff3a001d00370000138000db
:10151400620060000000e00009003a002e00900024
:10152400104078000080fb0040138800ae0090005b
:101534005e00900000804000200798001e0fe80025
:101544000113800000022000008060000000e00021
:101554000b003a0040138000804078003e00900069
:1015640001487800be0090004e00900000804000ca
:10157400300798001e0090000000e8001007980053
:101584002e0890009e007800808f5000dfff390005
:10159400100037000113800000022000008060006a
:1015a4000000e0000b003a00401380008040780007
:1015b4003e00900001487800be0090004e0090006c
:1015c40000804000300798001e0090000000e800f2
:1015d400100798009e0090002e089000808f500005
:1015e400ecff39001e0078000080fa0000000600bd
:1015f4000400fa00204798000e80e8008e0078006e
:101604007eff07001e4078000080fa0000000600fc
:101614000600fa00000f78001107980022079800ce
:101624002e0190009e0090001e0078008bff0700a2
:101634000080fa00000006000000fa001113800088
:1016440000402000008060000000e00002003a003a
:101654000000eb0001003700100020000080fa00b9
:10166400000006000000fa00001380000080fa0069
:10167400000006000000fa0014aea90018aea8008d
:1016840014cea90018cea800b00820000100200044
:101694002003070018aea900b008200001002000b4
:1016a4001c03070018cea9000000eb000080fa001c
:1016b400000006000000fa0014aea90018aea9004c
:1016c40014cea90018cea800b00820000100200004
:1016d4001003070014aea80014cea8000000eb000d
:1016e4000080fa00000006000400fa002047980079
:1016f40014aea90014cea900ae409000014f7800aa
:1017040080c0b30010479800140037001e407800d2
:101714000004e00002003d0018aea80001003700fc
:1017240018aea9001e40780000404000004f780029
:1017340018cea8007011200001002000f502070057
:1017440018cea900100d200001002000f1020700ae
:101754001e4090000040e900104798001e40900091
:101764000004e000e9ff3a0014aea8000000eb001a
:101774000080fa00000006000200fa0014aea8007f
:1017840014cea90080c0b30010479800130037009e
:101794005004200001002000de02070018cea8003b
:1017a4001e40780000404000004f7800b170800077
:1017b40000022000008060000000e000020032000f
:1017c4001e04a000010037001e04a10018cea900c9
:1017d4001e4090000040e900104798001e40900011
:1017e4000004e000eaff3a001e4078000080fa009e
:1017f400000006000200fa0014aea80014cea900ee
:1018040018cea8005004200001002000c1020700e7
:10181400b07080004500de0061406000004f780039
:1018240018cea9001e4078000080fa0000000600cf
:101834000000fa0014aea90018aea90014cea90045
:101844005004200001002000b202070018cea800b6
:10185400b008200001002000ae02070018cea90045
:1018640014aea8000000eb000080fa00000006009f
:101874000000fa0014aea90018aea80014cea90006
:1018840018cea8005004200001002000a102070087
:1018940018cea90050042000010020009d0207007a
:1018a40014aea8000000eb000080fa00000006005f
:1018b4000000fa00022cef00009021002060880054
:1018c400062cef000a2cef001a2cef001e2cef0060
:1018d4000008200000618800402cef00602cef001d
:1018e40000402400e3c1200011322400d2bc2a00ad
:1018f4008209780081097800106188000040240082
:10190400e3c1200011322400d2bc2a0082097800ed
:1019140081097800106288000000eb00e3c1200018
:1019240011322400d2bc2a0082097800810978008f
:101934001063880030442200e3c1200011322400e7
:10194400d2bc2a00820978008109780020618800cd
:1019540030042000e3c1200011322400d2bc2a004c
:10196400820978008109780020628800800f2000b5
:10197400e3c1200011322400d2bc2a00820978007d
:101984008109780020638800262cef00462cef00a4
:10199400662cef00282cef00482cef00682cef0099
:1019a4002a2cef004a2cef006a2cef002c2cef00bd
:1019b4004c2cef006c2cef00322cef00522cef007b
:1019c400722cef00342cef00542cef00742cef0039
:1019d400382cef00582cef00782cef003a2cef0055
:1019e4005a2cef007a2cef003c2cef005c2cef001b
:1019f4007c2cef003e2cef005e2cef007e2cef00e1
:101a040000002800006088000080fa000000060042
:101a14000000fa000080fa00000006000000fa004e
:101a24003140800000202000008060000000e000c1
:101a340002003200f6ff07000728a9000080fa0020
:101a4400000006000000fa000080fa000000060012
:101a54000000fa0031408000002020000080600077
:101a64000000e00002003200f6ff07000bc8a900e6
:101a74000080fa00000006000000fa000080fa006e
:101a8400000006000000fa00314080000020200021
:101a9400008060000000e00002003200f6ff070052
:101aa4000be8a9000080fa00000006000000fa001c
:101ab4000080fa00000006000000fa0031408000b7
:101ac40000202000008060000000e00002003200de
:101ad400f6ff07000c08a9000080fa0000000600c9
:101ae4000000fa00003a80000080fa0000000600be
:101af4000200fa00faff0700000f78001e007800c9
:101b0400240007000004e000020032000000280066
:101b1400710007001e0078002a0007000004e0009e
:101b240002003200000024006b0007001e00780051
:101b3400320007000004e000020032000020200010
:101b4400650007001e0078003a0007000004e0006a
:101b540002003200000820005f0007001e00780029
:101b6400420007000004e0000200320000042000ec
:101b7400590007001e0078004a0007000004e00036
:101b84000200320000012000530007000080fa0028
:101b9400000006000400fa00100798000040eb0063
:101ba400004f78001e0090000000e00002003d009d
:101bb40010c0b300004f78001e4078000080fa0087
:101bc400000006000400fa00100798000040eb0033
:101bd400004f78009e009000000024000080600008
:101be4000000e0000200320010c0b300004f780093
:101bf4001e4078000080fa00000006000400fa008d
:101c0400100798000040eb00004f78009e00900001
:101c140000202000008060000000e000020032008c
:101c240010c0b300004f78001e4078000080fa0016
:101c3400000006000400fa00100798000040eb00c2
:101c4400004f78009e009000000820000080600093
:101c54000000e0000200320010c0b300004f780022
:101c64001e4078000080fa00000006000400fa001c
:101c7400100798000040eb00004f78009e00900091
:101c840000042000008060000000e0000200320038
:101c940010c0b300004f78001e4078000080fa00a6
:101ca400000006000400fa00100798000040eb0052
:101cb400004f78001e009000700060000000e000fb
:101cc4000200320010c0b300004f78001e407800bc
:101cd4000080fa00000006000200fa00000f7800fd
:101ce4009e80ea00003a800000806000003a88008c
:101cf4000080fa00000006000000fa004027ef0010
:101d04000080fa00000006000000fa0000812000b4
:101d140000588800d000200010588800062bef00df
:101d240000002100205888000a2bef00082bef0048
:101d34000c2bef000e2bef000088a900102bef00f6
:101d4400122bef00162bef0000002100a058880092
:101d54001a2bef00182bef001c2bef001e2bef00ab
:101d640001c8a900202bef00222bef00262bef0047
:101d740000002100205988002a2bef00282bef00b7
:101d84002c2bef002e2bef000308a900302bef00c3
:101d9400322bef00362bef0000002100a059880001
:101da4003a2bef00382bef003c2bef003e2bef00db
:101db4000488a90001eba8000080fa0000000600d6
:101dc4000000fa000080fa00000006000000fa009b
:101dd40000408000700060000000e000020032005b
:101de400f7ff07000088a9000080fa000000060041
:101df4000000fa000080fa00000006000000fa006b
:101e04000140800000002400008060000000e00029
:101e140002003200f6ff070001c8a9000080fa00a2
:101e2400000006000000fa000080fa00000006002e
:101e34000000fa00114080000010200000806000c3
:101e44000000e00002003200f6ff07000308a900ca
:101e54000080fa00000006000000fa000080fa008a
:101e6400000006000000fa002040800070006000be
:101e74000000e00002003200f7ff07000488a90018
:101e84000080fa00000006000000fa000621ef00be
:101e940050aa2000600888000003280080088800f9
:101ea400908080000000e00002003a00e0f9200089
:101eb4002400070000e8a90020e8a800600d210024
:101ec4008040eb00014878000080fa000000060022
:101ed4000200fa00000f78009e0078006108880074
:101ee400600d21008040eb00014878000080fa007a
:101ef400000006000000fa00600880000080fa007c
:101f0400000006000200fa00000f78009e0078002e
:101f140031088800600d21008040eb000148780002
:101f24000080fa00000006000000fa00300880007b
:101f34000080fa00000006000000fa000080fa00a9
:101f4400000006000200fa00000f780020e8a90053
:101f54009e0078009180880020e8a8000080fa00a4
:101f6400000006000000fa00600d21008040eb0034
:101f74000148780020e8a80011e1a8000080fa00d8
:101f8400000006000000fa0011e1a90020e8a90001
:101f94000080fa00000006000200fa00600d210033
:101fa400104f78001e4078000004e0000300320067
:101fb400600d21008040eb00014878001e4078004d
:101fc4000080fa00000006000000fa00700d2100f5
:101fd400104078000080fb000080fa00000006003a
:101fe4000000fa00700d21008040eb0001487800e9
:101ff4000080fa00000006000000fa00042eef0042
:10200400182eef00c00020000070880070d8250052
:10201400a07088000c2eef00202eef000a2eef0097
:102024001e2eef00062eef001a2eef000e2eef00ec
:102034004008200010718800113a8000f00b200045
:1020440000816000600420007105200023742000da
:1020540080497800814978008249780040c1b30002
:10206400cde6b7008133800000fc2f0000806000c3
:102074009000b300803388009133800000fc2f006f
:10208400008060000030a0009033880030c1b300ad
:10209400cce6b700103a8000000178000260a0008e
:1020a400600420007105200023742000804978001a
:1020b40081497800824978000080fa000000060017
:1020c4000000fa0000202300203a88004827ef008f
:1020d4004e27ef00d0122000303a88006027ef002e
:1020e4006227ef006427ef006627ef006a27ef00fe
:1020f4006c27ef006e27ef001200200080072000fd
:10210400a1092000337420008049780081497800b7
:10211400824978001200200060042000710520002c
:10212400237420008049780081497800824978002e
:1021340000000000103a8000610060000000e00030
:10214400fcff3a0000000000113a80000002200069
:10215400008060000000e000fbff32000080fa0015
:10216400000006000000fa00404e28000019880014
:102174002223ef00f0812100201988002823ef009a
:1021840000202000701988003023ef000010200088
:10219400901988002623ef00600d21000500070038
:1021a4000080fa00000006000000fa000080fa0037
:1021b400000006000200fa00000f78001e007800fc
:1021c400a08088000080fa00000006000000fa00e9
:1021d4000140800000002200008060000000e00058
:1021e40006003200a08080000000e00002003200ff
:1021f400a08080000000010001a8a9000080fa006e
:10220400000006000200fa00000f7800210280009e
:10221400200f2000008060001e0070002002880053
:102224000080fa00000006000000fa00c3e8a800dd
:1022340000000000000000000080fa00000006001a
:102244000000fa006cff07004b0007009cff07002a
:1022540061fc0700c3ff070095fd07000aff0700a4
:10226400a9fe0700f0ff070000022000e5ff0700b9
:082274000080fa0000000600e2
:020000040000fa
:10227c00b6100000200000008000000010100000cc
:10228c000200000082000000ffff0000d6100000da
:10229c00020000008000000012100000020000008c
:1022ac0080000000141000000200000080000000fc
:1022bc0016100000a00000008000000000100000bc
:0c22cc0010000000800000000000000076
:020000040000fa
:1022d8000000fa0079ff07000080fa0000000600fd
:1022e8000000fa00003a80000080fa0000000600b2
:1022f8000000fa00fdfd07000080fa00000006005b
:102308000000fa007bfe07000080fa0000000600cb
:020000040000fa
:10231800f03fb1000180b10006003500ee0309006e
:1023280000000000403fb1000180b100fbff3d000c
:102338001000b000203fb000020035000080090006
:08234800000000000000060087
:020000040000fa
:10235000000f78009e00780081808800ffff370022
:102360000000fa00600b210080077800e00c2100db
:10237000000188000080fa00000006000000fa005a
:1023800011428000f0ff28008080600000002300e0
:1023900001007000104288000080fa000000060072
:020000040000fa
:020000040005f5
:04570000ffffff00a8
:020000040000fa
:020000040005f5
:04572000ffff000087
:020000040000fa
:020000040005f5
:04573000f8ff00007e
:020000040000fa
:020000040005f5
:045738007bff0000f3
:020000040000fa
:020000040005f5
:0457400095ff0000d1
:020000040000fa
:020000040005f5
:04574800ffff00005f
:020000040000fa
:020000040005f5
:04575000fdff000059
:020000040000fa
:020000040005f5
:04575800000000004d
:020000040000fa
:020000040005f5
:045760000000000045
:020000040000fa
:020000040005f5
:04576800000000003d
:020000040000fa
:020000040005f5
:045770000000000035
:020000040000fa
:020000040005f5
:04577800feff000030
:020000040000fa
:020000040005f5
:04578000ffff000027
:020000040000fa
:020000040005f5
:04578800ffff00001f
:00000001FF
